{
  "_format": "hh-sol-artifact-1",
  "contractName": "MintableERC1155",
  "sourceName": "contracts/test/Mintable.sol",
  "abi": [
    {
      "inputs": [],
      "stateMutability": "nonpayable",
      "type": "constructor"
    },
    {
      "anonymous": false,
      "inputs": [
        {
          "indexed": true,
          "internalType": "address",
          "name": "account",
          "type": "address"
        },
        {
          "indexed": true,
          "internalType": "address",
          "name": "operator",
          "type": "address"
        },
        {
          "indexed": false,
          "internalType": "bool",
          "name": "approved",
          "type": "bool"
        }
      ],
      "name": "ApprovalForAll",
      "type": "event"
    },
    {
      "anonymous": false,
      "inputs": [
        {
          "indexed": true,
          "internalType": "address",
          "name": "operator",
          "type": "address"
        },
        {
          "indexed": true,
          "internalType": "address",
          "name": "from",
          "type": "address"
        },
        {
          "indexed": true,
          "internalType": "address",
          "name": "to",
          "type": "address"
        },
        {
          "indexed": false,
          "internalType": "uint256[]",
          "name": "ids",
          "type": "uint256[]"
        },
        {
          "indexed": false,
          "internalType": "uint256[]",
          "name": "values",
          "type": "uint256[]"
        }
      ],
      "name": "TransferBatch",
      "type": "event"
    },
    {
      "anonymous": false,
      "inputs": [
        {
          "indexed": true,
          "internalType": "address",
          "name": "operator",
          "type": "address"
        },
        {
          "indexed": true,
          "internalType": "address",
          "name": "from",
          "type": "address"
        },
        {
          "indexed": true,
          "internalType": "address",
          "name": "to",
          "type": "address"
        },
        {
          "indexed": false,
          "internalType": "uint256",
          "name": "id",
          "type": "uint256"
        },
        {
          "indexed": false,
          "internalType": "uint256",
          "name": "value",
          "type": "uint256"
        }
      ],
      "name": "TransferSingle",
      "type": "event"
    },
    {
      "anonymous": false,
      "inputs": [
        {
          "indexed": false,
          "internalType": "string",
          "name": "value",
          "type": "string"
        },
        {
          "indexed": true,
          "internalType": "uint256",
          "name": "id",
          "type": "uint256"
        }
      ],
      "name": "URI",
      "type": "event"
    },
    {
      "inputs": [
        {
          "internalType": "address",
          "name": "account",
          "type": "address"
        },
        {
          "internalType": "uint256",
          "name": "id",
          "type": "uint256"
        }
      ],
      "name": "balanceOf",
      "outputs": [
        {
          "internalType": "uint256",
          "name": "",
          "type": "uint256"
        }
      ],
      "stateMutability": "view",
      "type": "function"
    },
    {
      "inputs": [
        {
          "internalType": "address[]",
          "name": "accounts",
          "type": "address[]"
        },
        {
          "internalType": "uint256[]",
          "name": "ids",
          "type": "uint256[]"
        }
      ],
      "name": "balanceOfBatch",
      "outputs": [
        {
          "internalType": "uint256[]",
          "name": "",
          "type": "uint256[]"
        }
      ],
      "stateMutability": "view",
      "type": "function"
    },
    {
      "inputs": [
        {
          "internalType": "address",
          "name": "account",
          "type": "address"
        },
        {
          "internalType": "address",
          "name": "operator",
          "type": "address"
        }
      ],
      "name": "isApprovedForAll",
      "outputs": [
        {
          "internalType": "bool",
          "name": "",
          "type": "bool"
        }
      ],
      "stateMutability": "view",
      "type": "function"
    },
    {
      "inputs": [
        {
          "internalType": "uint256",
          "name": "tokenId",
          "type": "uint256"
        },
        {
          "internalType": "uint256",
          "name": "amount",
          "type": "uint256"
        }
      ],
      "name": "mint",
      "outputs": [],
      "stateMutability": "nonpayable",
      "type": "function"
    },
    {
      "inputs": [
        {
          "internalType": "uint256",
          "name": "tokenId",
          "type": "uint256"
        },
        {
          "internalType": "uint256",
          "name": "amount",
          "type": "uint256"
        },
        {
          "internalType": "address",
          "name": "owner",
          "type": "address"
        }
      ],
      "name": "mint",
      "outputs": [],
      "stateMutability": "nonpayable",
      "type": "function"
    },
    {
      "inputs": [
        {
          "internalType": "address",
          "name": "from",
          "type": "address"
        },
        {
          "internalType": "address",
          "name": "to",
          "type": "address"
        },
        {
          "internalType": "uint256[]",
          "name": "ids",
          "type": "uint256[]"
        },
        {
          "internalType": "uint256[]",
          "name": "amounts",
          "type": "uint256[]"
        },
        {
          "internalType": "bytes",
          "name": "data",
          "type": "bytes"
        }
      ],
      "name": "safeBatchTransferFrom",
      "outputs": [],
      "stateMutability": "nonpayable",
      "type": "function"
    },
    {
      "inputs": [
        {
          "internalType": "address",
          "name": "from",
          "type": "address"
        },
        {
          "internalType": "address",
          "name": "to",
          "type": "address"
        },
        {
          "internalType": "uint256",
          "name": "id",
          "type": "uint256"
        },
        {
          "internalType": "uint256",
          "name": "amount",
          "type": "uint256"
        },
        {
          "internalType": "bytes",
          "name": "data",
          "type": "bytes"
        }
      ],
      "name": "safeTransferFrom",
      "outputs": [],
      "stateMutability": "nonpayable",
      "type": "function"
    },
    {
      "inputs": [
        {
          "internalType": "address",
          "name": "operator",
          "type": "address"
        },
        {
          "internalType": "bool",
          "name": "approved",
          "type": "bool"
        }
      ],
      "name": "setApprovalForAll",
      "outputs": [],
      "stateMutability": "nonpayable",
      "type": "function"
    },
    {
      "inputs": [
        {
          "internalType": "bytes4",
          "name": "interfaceId",
          "type": "bytes4"
        }
      ],
      "name": "supportsInterface",
      "outputs": [
        {
          "internalType": "bool",
          "name": "",
          "type": "bool"
        }
      ],
      "stateMutability": "view",
      "type": "function"
    },
    {
      "inputs": [
        {
          "internalType": "uint256",
          "name": "tokenId",
          "type": "uint256"
        }
      ],
      "name": "uri",
      "outputs": [
        {
          "internalType": "string",
          "name": "",
          "type": "string"
        }
      ],
      "stateMutability": "view",
      "type": "function"
    }
  ],
  "bytecode": "0x60806040523480156200001157600080fd5b50604051806060016040528060288152602001620018f86028913962000037816200003e565b506200013a565b80516200005390600290602084019062000057565b5050565b8280546200006590620000fd565b90600052602060002090601f016020900481019282620000895760008555620000d4565b82601f10620000a457805160ff1916838001178555620000d4565b82800160010185558215620000d4579182015b82811115620000d4578251825591602001919060010190620000b7565b50620000e2929150620000e6565b5090565b5b80821115620000e25760008155600101620000e7565b600181811c908216806200011257607f821691505b602082108114156200013457634e487b7160e01b600052602260045260246000fd5b50919050565b6117ae806200014a6000396000f3fe608060405234801561001057600080fd5b506004361061009d5760003560e01c80634e1273f4116100665780634e1273f414610133578063a22cb46514610153578063e7d3fe6b14610166578063e985e9c514610179578063f242432a146101b557600080fd5b8062fdd58e146100a257806301ffc9a7146100c85780630e89341c146100eb5780631b2ef1ca1461010b5780632eb2c2d614610120575b600080fd5b6100b56100b0366004611151565b6101c8565b6040519081526020015b60405180910390f35b6100db6100d6366004611245565b61025e565b60405190151581526020016100bf565b6100fe6100f9366004611284565b6102b0565b6040516100bf919061146a565b61011e61011936600461129c565b6102eb565b005b61011e61012e36600461100e565b61030a565b61014661014136600461117a565b610356565b6040516100bf9190611429565b61011e610161366004611117565b6104b8565b61011e6101743660046112bd565b6104c3565b6100db610187366004610fdc565b6001600160a01b03918216600090815260016020908152604080832093909416825291909152205460ff1690565b61011e6101c33660046110b4565b6104e3565b60006001600160a01b0383166102385760405162461bcd60e51b815260206004820152602a60248201527f455243313135353a2061646472657373207a65726f206973206e6f742061207660448201526930b634b21037bbb732b960b11b60648201526084015b60405180910390fd5b506000908152602081815260408083206001600160a01b03949094168352929052205490565b60006001600160e01b03198216636cdb3d1360e11b148061028f57506001600160e01b031982166303a24d0760e21b145b806102aa57506301ffc9a760e01b6001600160e01b03198316145b92915050565b60606102bb82610528565b6102c4836105bc565b6040516020016102d5929190611357565b6040516020818303038152906040529050919050565b6103063383836040518060200160405280600081525061065f565b5050565b6001600160a01b03851633148061032657506103268533610187565b6103425760405162461bcd60e51b815260040161022f906114c5565b61034f8585858585610773565b5050505050565b606081518351146103bb5760405162461bcd60e51b815260206004820152602960248201527f455243313135353a206163636f756e747320616e6420696473206c656e677468604482015268040dad2e6dac2e8c6d60bb1b606482015260840161022f565b6000835167ffffffffffffffff8111156103e557634e487b7160e01b600052604160045260246000fd5b60405190808252806020026020018201604052801561040e578160200160208202803683370190505b50905060005b84518110156104b05761047585828151811061044057634e487b7160e01b600052603260045260246000fd5b602002602001015185838151811061046857634e487b7160e01b600052603260045260246000fd5b60200260200101516101c8565b82828151811061049557634e487b7160e01b600052603260045260246000fd5b60209081029190910101526104a981611676565b9050610414565b509392505050565b61030633838361096c565b6104de8184846040518060200160405280600081525061065f565b505050565b6001600160a01b0385163314806104ff57506104ff8533610187565b61051b5760405162461bcd60e51b815260040161022f906114c5565b61034f8585858585610a4d565b6060600280546105379061160e565b80601f01602080910402602001604051908101604052809291908181526020018280546105639061160e565b80156105b05780601f10610585576101008083540402835291602001916105b0565b820191906000526020600020905b81548152906001019060200180831161059357829003601f168201915b50505050509050919050565b606060006105c983610b77565b600101905060008167ffffffffffffffff8111156105f757634e487b7160e01b600052604160045260246000fd5b6040519080825280601f01601f191660200182016040528015610621576020820181803683370190505b5090508181016020015b600019016f181899199a1a9b1b9c1cb0b131b232b360811b600a86061a8153600a850494508461065a576104b0565b61062b565b6001600160a01b0384166106bf5760405162461bcd60e51b815260206004820152602160248201527f455243313135353a206d696e7420746f20746865207a65726f206164647265736044820152607360f81b606482015260840161022f565b3360006106cb85610c4f565b905060006106d885610c4f565b90506000868152602081815260408083206001600160a01b038b1684529091528120805487929061070a9084906115c6565b909155505060408051878152602081018790526001600160a01b03808a1692600092918716917fc3d58168c5ae7397731d063d5bbf3d657854427343f4c083240f7aacaa2d0f62910160405180910390a461076a83600089898989610ca8565b50505050505050565b81518351146107d55760405162461bcd60e51b815260206004820152602860248201527f455243313135353a2069647320616e6420616d6f756e7473206c656e677468206044820152670dad2e6dac2e8c6d60c31b606482015260840161022f565b6001600160a01b0384166107fb5760405162461bcd60e51b815260040161022f90611513565b3360005b84518110156108fe57600085828151811061082a57634e487b7160e01b600052603260045260246000fd5b60200260200101519050600085838151811061085657634e487b7160e01b600052603260045260246000fd5b602090810291909101810151600084815280835260408082206001600160a01b038e1683529093529190912054909150818110156108a65760405162461bcd60e51b815260040161022f90611558565b6000838152602081815260408083206001600160a01b038e8116855292528083208585039055908b168252812080548492906108e39084906115c6565b92505081905550505050806108f790611676565b90506107ff565b50846001600160a01b0316866001600160a01b0316826001600160a01b03167f4a39dc06d4c0dbc64b70af90fd698a233a518aa5d07e595d983b8c0526c8f7fb878760405161094e92919061143c565b60405180910390a4610964818787878787610e13565b505050505050565b816001600160a01b0316836001600160a01b031614156109e05760405162461bcd60e51b815260206004820152602960248201527f455243313135353a2073657474696e6720617070726f76616c20737461747573604482015268103337b91039b2b63360b91b606482015260840161022f565b6001600160a01b03838116600081815260016020908152604080832094871680845294825291829020805460ff191686151590811790915591519182527f17307eab39ab6107e8899845ad3d59bd9653f200f220920489ca2b5937696c31910160405180910390a3505050565b6001600160a01b038416610a735760405162461bcd60e51b815260040161022f90611513565b336000610a7f85610c4f565b90506000610a8c85610c4f565b90506000868152602081815260408083206001600160a01b038c16845290915290205485811015610acf5760405162461bcd60e51b815260040161022f90611558565b6000878152602081815260408083206001600160a01b038d8116855292528083208985039055908a16825281208054889290610b0c9084906115c6565b909155505060408051888152602081018890526001600160a01b03808b16928c821692918816917fc3d58168c5ae7397731d063d5bbf3d657854427343f4c083240f7aacaa2d0f62910160405180910390a4610b6c848a8a8a8a8a610ca8565b505050505050505050565b60008072184f03e93ff9f4daa797ed6e38ed64bf6a1f0160401b8310610bb65772184f03e93ff9f4daa797ed6e38ed64bf6a1f0160401b830492506040015b6d04ee2d6d415b85acef81000000008310610be2576d04ee2d6d415b85acef8100000000830492506020015b662386f26fc100008310610c0057662386f26fc10000830492506010015b6305f5e1008310610c18576305f5e100830492506008015b6127108310610c2c57612710830492506004015b60648310610c3e576064830492506002015b600a83106102aa5760010192915050565b60408051600180825281830190925260609160009190602080830190803683370190505090508281600081518110610c9757634e487b7160e01b600052603260045260246000fd5b602090810291909101015292915050565b6001600160a01b0384163b156109645760405163f23a6e6160e01b81526001600160a01b0385169063f23a6e6190610cec90899089908890889088906004016113e4565b602060405180830381600087803b158015610d0657600080fd5b505af1925050508015610d36575060408051601f3d908101601f19168201909252610d3391810190611268565b60015b610de357610d426116bd565b806308c379a01415610d7c5750610d576116d5565b80610d625750610d7e565b8060405162461bcd60e51b815260040161022f919061146a565b505b60405162461bcd60e51b815260206004820152603460248201527f455243313135353a207472616e7366657220746f206e6f6e2d455243313135356044820152732932b1b2b4bb32b91034b6b83632b6b2b73a32b960611b606482015260840161022f565b6001600160e01b0319811663f23a6e6160e01b1461076a5760405162461bcd60e51b815260040161022f9061147d565b6001600160a01b0384163b156109645760405163bc197c8160e01b81526001600160a01b0385169063bc197c8190610e579089908990889088908890600401611386565b602060405180830381600087803b158015610e7157600080fd5b505af1925050508015610ea1575060408051601f3d908101601f19168201909252610e9e91810190611268565b60015b610ead57610d426116bd565b6001600160e01b0319811663bc197c8160e01b1461076a5760405162461bcd60e51b815260040161022f9061147d565b80356001600160a01b0381168114610ef457600080fd5b919050565b600082601f830112610f09578081fd5b81356020610f16826115a2565b604051610f238282611649565b8381528281019150858301600585901b87018401881015610f42578586fd5b855b85811015610f6057813584529284019290840190600101610f44565b5090979650505050505050565b600082601f830112610f7d578081fd5b813567ffffffffffffffff811115610f9757610f976116a7565b604051610fae601f8301601f191660200182611649565b818152846020838601011115610fc2578283fd5b816020850160208301379081016020019190915292915050565b60008060408385031215610fee578182fd5b610ff783610edd565b915061100560208401610edd565b90509250929050565b600080600080600060a08688031215611025578081fd5b61102e86610edd565b945061103c60208701610edd565b9350604086013567ffffffffffffffff80821115611058578283fd5b61106489838a01610ef9565b94506060880135915080821115611079578283fd5b61108589838a01610ef9565b9350608088013591508082111561109a578283fd5b506110a788828901610f6d565b9150509295509295909350565b600080600080600060a086880312156110cb578081fd5b6110d486610edd565b94506110e260208701610edd565b93506040860135925060608601359150608086013567ffffffffffffffff81111561110b578182fd5b6110a788828901610f6d565b60008060408385031215611129578182fd5b61113283610edd565b915060208301358015158114611146578182fd5b809150509250929050565b60008060408385031215611163578182fd5b61116c83610edd565b946020939093013593505050565b6000806040838503121561118c578182fd5b823567ffffffffffffffff808211156111a3578384fd5b818501915085601f8301126111b6578384fd5b813560206111c3826115a2565b6040516111d08282611649565b8381528281019150858301600585901b870184018b10156111ef578889fd5b8896505b848710156112185761120481610edd565b8352600196909601959183019183016111f3565b509650508601359250508082111561122e578283fd5b5061123b85828601610ef9565b9150509250929050565b600060208284031215611256578081fd5b81356112618161175f565b9392505050565b600060208284031215611279578081fd5b81516112618161175f565b600060208284031215611295578081fd5b5035919050565b600080604083850312156112ae578182fd5b50508035926020909101359150565b6000806000606084860312156112d1578081fd5b83359250602084013591506112e860408501610edd565b90509250925092565b6000815180845260208085019450808401835b8381101561132057815187529582019590820190600101611304565b509495945050505050565b600081518084526113438160208601602086016115de565b601f01601f19169290920160200192915050565b600083516113698184602088016115de565b83519083019061137d8183602088016115de565b01949350505050565b6001600160a01b0386811682528516602082015260a0604082018190526000906113b2908301866112f1565b82810360608401526113c481866112f1565b905082810360808401526113d8818561132b565b98975050505050505050565b6001600160a01b03868116825285166020820152604081018490526060810183905260a06080820181905260009061141e9083018461132b565b979650505050505050565b60208152600061126160208301846112f1565b60408152600061144f60408301856112f1565b828103602084015261146181856112f1565b95945050505050565b602081526000611261602083018461132b565b60208082526028908201527f455243313135353a204552433131353552656365697665722072656a656374656040820152676420746f6b656e7360c01b606082015260800190565b6020808252602e908201527f455243313135353a2063616c6c6572206973206e6f7420746f6b656e206f776e60408201526d195c881bdc88185c1c1c9bdd995960921b606082015260800190565b60208082526025908201527f455243313135353a207472616e7366657220746f20746865207a65726f206164604082015264647265737360d81b606082015260800190565b6020808252602a908201527f455243313135353a20696e73756666696369656e742062616c616e636520666f60408201526939103a3930b739b332b960b11b606082015260800190565b600067ffffffffffffffff8211156115bc576115bc6116a7565b5060051b60200190565b600082198211156115d9576115d9611691565b500190565b60005b838110156115f95781810151838201526020016115e1565b83811115611608576000848401525b50505050565b600181811c9082168061162257607f821691505b6020821081141561164357634e487b7160e01b600052602260045260246000fd5b50919050565b601f8201601f1916810167ffffffffffffffff8111828210171561166f5761166f6116a7565b6040525050565b600060001982141561168a5761168a611691565b5060010190565b634e487b7160e01b600052601160045260246000fd5b634e487b7160e01b600052604160045260246000fd5b600060033d11156116d257600481823e5160e01c5b90565b600060443d10156116e35790565b6040516003193d81016004833e81513d67ffffffffffffffff816024840111818411171561171357505050505090565b828501915081518181111561172b5750505050505090565b843d87010160208285010111156117455750505050505090565b61175460208286010187611649565b509095945050505050565b6001600160e01b03198116811461177557600080fd5b5056fea26469706673582212205008fc304572390687c7af174c0a28c5463b47b9e73b294c009785813ea006cb64736f6c6343000804003368747470733a2f2f6578616d706c652e636f6d2f746f6b656e2f313135352f6d657461646174612f",
  "linkReferences": {},
  "deployedLinkReferences": {}
}