{
  "_format": "hh-sol-artifact-1",
  "contractName": "MintableERC721",
  "sourceName": "contracts/test/Mintable.sol",
  "abi": [
    {
      "inputs": [],
      "stateMutability": "nonpayable",
      "type": "constructor"
    },
    {
      "anonymous": false,
      "inputs": [
        {
          "indexed": true,
          "internalType": "address",
          "name": "owner",
          "type": "address"
        },
        {
          "indexed": true,
          "internalType": "address",
          "name": "approved",
          "type": "address"
        },
        {
          "indexed": true,
          "internalType": "uint256",
          "name": "tokenId",
          "type": "uint256"
        }
      ],
      "name": "Approval",
      "type": "event"
    },
    {
      "anonymous": false,
      "inputs": [
        {
          "indexed": true,
          "internalType": "address",
          "name": "owner",
          "type": "address"
        },
        {
          "indexed": true,
          "internalType": "address",
          "name": "operator",
          "type": "address"
        },
        {
          "indexed": false,
          "internalType": "bool",
          "name": "approved",
          "type": "bool"
        }
      ],
      "name": "ApprovalForAll",
      "type": "event"
    },
    {
      "anonymous": false,
      "inputs": [
        {
          "indexed": true,
          "internalType": "address",
          "name": "from",
          "type": "address"
        },
        {
          "indexed": true,
          "internalType": "address",
          "name": "to",
          "type": "address"
        },
        {
          "indexed": true,
          "internalType": "uint256",
          "name": "tokenId",
          "type": "uint256"
        }
      ],
      "name": "Transfer",
      "type": "event"
    },
    {
      "inputs": [
        {
          "internalType": "address",
          "name": "to",
          "type": "address"
        },
        {
          "internalType": "uint256",
          "name": "tokenId",
          "type": "uint256"
        }
      ],
      "name": "approve",
      "outputs": [],
      "stateMutability": "nonpayable",
      "type": "function"
    },
    {
      "inputs": [
        {
          "internalType": "address",
          "name": "owner",
          "type": "address"
        }
      ],
      "name": "balanceOf",
      "outputs": [
        {
          "internalType": "uint256",
          "name": "",
          "type": "uint256"
        }
      ],
      "stateMutability": "view",
      "type": "function"
    },
    {
      "inputs": [
        {
          "internalType": "uint256",
          "name": "tokenId",
          "type": "uint256"
        }
      ],
      "name": "getApproved",
      "outputs": [
        {
          "internalType": "address",
          "name": "",
          "type": "address"
        }
      ],
      "stateMutability": "view",
      "type": "function"
    },
    {
      "inputs": [
        {
          "internalType": "address",
          "name": "owner",
          "type": "address"
        },
        {
          "internalType": "address",
          "name": "operator",
          "type": "address"
        }
      ],
      "name": "isApprovedForAll",
      "outputs": [
        {
          "internalType": "bool",
          "name": "",
          "type": "bool"
        }
      ],
      "stateMutability": "view",
      "type": "function"
    },
    {
      "inputs": [
        {
          "internalType": "uint256",
          "name": "tokenId",
          "type": "uint256"
        },
        {
          "internalType": "address",
          "name": "owner",
          "type": "address"
        }
      ],
      "name": "mint",
      "outputs": [],
      "stateMutability": "nonpayable",
      "type": "function"
    },
    {
      "inputs": [
        {
          "internalType": "uint256",
          "name": "tokenId",
          "type": "uint256"
        }
      ],
      "name": "mint",
      "outputs": [],
      "stateMutability": "nonpayable",
      "type": "function"
    },
    {
      "inputs": [],
      "name": "name",
      "outputs": [
        {
          "internalType": "string",
          "name": "",
          "type": "string"
        }
      ],
      "stateMutability": "view",
      "type": "function"
    },
    {
      "inputs": [
        {
          "internalType": "uint256",
          "name": "tokenId",
          "type": "uint256"
        }
      ],
      "name": "ownerOf",
      "outputs": [
        {
          "internalType": "address",
          "name": "",
          "type": "address"
        }
      ],
      "stateMutability": "view",
      "type": "function"
    },
    {
      "inputs": [
        {
          "internalType": "address",
          "name": "from",
          "type": "address"
        },
        {
          "internalType": "address",
          "name": "to",
          "type": "address"
        },
        {
          "internalType": "uint256",
          "name": "tokenId",
          "type": "uint256"
        }
      ],
      "name": "safeTransferFrom",
      "outputs": [],
      "stateMutability": "nonpayable",
      "type": "function"
    },
    {
      "inputs": [
        {
          "internalType": "address",
          "name": "from",
          "type": "address"
        },
        {
          "internalType": "address",
          "name": "to",
          "type": "address"
        },
        {
          "internalType": "uint256",
          "name": "tokenId",
          "type": "uint256"
        },
        {
          "internalType": "bytes",
          "name": "data",
          "type": "bytes"
        }
      ],
      "name": "safeTransferFrom",
      "outputs": [],
      "stateMutability": "nonpayable",
      "type": "function"
    },
    {
      "inputs": [
        {
          "internalType": "address",
          "name": "operator",
          "type": "address"
        },
        {
          "internalType": "bool",
          "name": "approved",
          "type": "bool"
        }
      ],
      "name": "setApprovalForAll",
      "outputs": [],
      "stateMutability": "nonpayable",
      "type": "function"
    },
    {
      "inputs": [
        {
          "internalType": "bytes4",
          "name": "interfaceId",
          "type": "bytes4"
        }
      ],
      "name": "supportsInterface",
      "outputs": [
        {
          "internalType": "bool",
          "name": "",
          "type": "bool"
        }
      ],
      "stateMutability": "view",
      "type": "function"
    },
    {
      "inputs": [],
      "name": "symbol",
      "outputs": [
        {
          "internalType": "string",
          "name": "",
          "type": "string"
        }
      ],
      "stateMutability": "view",
      "type": "function"
    },
    {
      "inputs": [
        {
          "internalType": "uint256",
          "name": "tokenId",
          "type": "uint256"
        }
      ],
      "name": "tokenURI",
      "outputs": [
        {
          "internalType": "string",
          "name": "",
          "type": "string"
        }
      ],
      "stateMutability": "view",
      "type": "function"
    },
    {
      "inputs": [
        {
          "internalType": "address",
          "name": "from",
          "type": "address"
        },
        {
          "internalType": "address",
          "name": "to",
          "type": "address"
        },
        {
          "internalType": "uint256",
          "name": "tokenId",
          "type": "uint256"
        }
      ],
      "name": "transferFrom",
      "outputs": [],
      "stateMutability": "nonpayable",
      "type": "function"
    }
  ],
  "bytecode": "0x60806040523480156200001157600080fd5b5060408051808201825260038082526213919560ea1b60208084018281528551808701909652928552840152815191929162000050916000916200006f565b508051620000669060019060208401906200006f565b50505062000152565b8280546200007d9062000115565b90600052602060002090601f016020900481019282620000a15760008555620000ec565b82601f10620000bc57805160ff1916838001178555620000ec565b82800160010185558215620000ec579182015b82811115620000ec578251825591602001919060010190620000cf565b50620000fa929150620000fe565b5090565b5b80821115620000fa5760008155600101620000ff565b600181811c908216806200012a57607f821691505b602082108114156200014c57634e487b7160e01b600052602260045260246000fd5b50919050565b61144180620001626000396000f3fe608060405234801561001057600080fd5b50600436106100f55760003560e01c806370a0823111610097578063a22cb46511610066578063a22cb465146101ff578063b88d4fde14610212578063c87b56dd14610225578063e985e9c51461023857600080fd5b806370a08231146101b057806394bf804d146101d157806395d89b41146101e4578063a0712d68146101ec57600080fd5b8063095ea7b3116100d3578063095ea7b31461016257806323b872dd1461017757806342842e0e1461018a5780636352211e1461019d57600080fd5b806301ffc9a7146100fa57806306fdde0314610122578063081812fc14610137575b600080fd5b61010d61010836600461110b565b610274565b60405190151581526020015b60405180910390f35b61012a6102c6565b6040516101199190611215565b61014a610145366004611143565b610358565b6040516001600160a01b039091168152602001610119565b6101756101703660046110e2565b61037f565b005b610175610185366004610f98565b61049a565b610175610198366004610f98565b6104cb565b61014a6101ab366004611143565b6104e6565b6101c36101be366004610f4c565b610546565b604051908152602001610119565b6101756101df36600461115b565b6105cc565b61012a6105da565b6101756101fa366004611143565b6105e9565b61017561020d3660046110a8565b6105f6565b610175610220366004610fd3565b610601565b61012a610233366004611143565b610639565b61010d610246366004610f66565b6001600160a01b03918216600090815260056020908152604080832093909416825291909152205460ff1690565b60006001600160e01b031982166380ac58cd60e01b14806102a557506001600160e01b03198216635b5e139f60e01b145b806102c057506301ffc9a760e01b6001600160e01b03198316145b92915050565b6060600080546102d590611367565b80601f016020809104026020016040519081016040528092919081815260200182805461030190611367565b801561034e5780601f106103235761010080835404028352916020019161034e565b820191906000526020600020905b81548152906001019060200180831161033157829003601f168201915b5050505050905090565b6000610363826106a0565b506000908152600460205260409020546001600160a01b031690565b600061038a826104e6565b9050806001600160a01b0316836001600160a01b031614156103fd5760405162461bcd60e51b815260206004820152602160248201527f4552433732313a20617070726f76616c20746f2063757272656e74206f776e656044820152603960f91b60648201526084015b60405180910390fd5b336001600160a01b038216148061041957506104198133610246565b61048b5760405162461bcd60e51b815260206004820152603d60248201527f4552433732313a20617070726f76652063616c6c6572206973206e6f7420746f60448201527f6b656e206f776e6572206f7220617070726f76656420666f7220616c6c00000060648201526084016103f4565b61049583836106ff565b505050565b6104a4338261076d565b6104c05760405162461bcd60e51b81526004016103f490611228565b6104958383836107ec565b61049583838360405180602001604052806000815250610601565b6000818152600260205260408120546001600160a01b0316806102c05760405162461bcd60e51b8152602060048201526018602482015277115490cdcc8c4e881a5b9d985b1a59081d1bdad95b88125160421b60448201526064016103f4565b60006001600160a01b0382166105b05760405162461bcd60e51b815260206004820152602960248201527f4552433732313a2061646472657373207a65726f206973206e6f7420612076616044820152683634b21037bbb732b960b91b60648201526084016103f4565b506001600160a01b031660009081526003602052604090205490565b6105d6818361095d565b5050565b6060600180546102d590611367565b6105f3338261095d565b50565b6105d6338383610af6565b61060b338361076d565b6106275760405162461bcd60e51b81526004016103f490611228565b61063384848484610bc5565b50505050565b6060610644826106a0565b600061064e610bf8565b9050600081511161066e5760405180602001604052806000815250610699565b8061067884610c18565b6040516020016106899291906111a9565b6040516020818303038152906040525b9392505050565b6000818152600260205260409020546001600160a01b03166105f35760405162461bcd60e51b8152602060048201526018602482015277115490cdcc8c4e881a5b9d985b1a59081d1bdad95b88125160421b60448201526064016103f4565b600081815260046020526040902080546001600160a01b0319166001600160a01b0384169081179091558190610734826104e6565b6001600160a01b03167f8c5be1e5ebec7d5bd14f71427d1e84f3dd0314c0f7b2291e5b200ac8c7c3b92560405160405180910390a45050565b600080610779836104e6565b9050806001600160a01b0316846001600160a01b031614806107c057506001600160a01b0380821660009081526005602090815260408083209388168352929052205460ff165b806107e45750836001600160a01b03166107d984610358565b6001600160a01b0316145b949350505050565b826001600160a01b03166107ff826104e6565b6001600160a01b0316146108255760405162461bcd60e51b81526004016103f4906112c7565b6001600160a01b0382166108875760405162461bcd60e51b8152602060048201526024808201527f4552433732313a207472616e7366657220746f20746865207a65726f206164646044820152637265737360e01b60648201526084016103f4565b6108948383836001610cc3565b826001600160a01b03166108a7826104e6565b6001600160a01b0316146108cd5760405162461bcd60e51b81526004016103f4906112c7565b600081815260046020908152604080832080546001600160a01b03199081169091556001600160a01b0387811680865260038552838620805460001901905590871680865283862080546001019055868652600290945282852080549092168417909155905184937fddf252ad1be2c89b69c2b068fc378daa952ba7f163c4a11628f55a4df523b3ef91a4505050565b6001600160a01b0382166109b35760405162461bcd60e51b815260206004820181905260248201527f4552433732313a206d696e7420746f20746865207a65726f206164647265737360448201526064016103f4565b6000818152600260205260409020546001600160a01b031615610a185760405162461bcd60e51b815260206004820152601c60248201527f4552433732313a20746f6b656e20616c7265616479206d696e7465640000000060448201526064016103f4565b610a26600083836001610cc3565b6000818152600260205260409020546001600160a01b031615610a8b5760405162461bcd60e51b815260206004820152601c60248201527f4552433732313a20746f6b656e20616c7265616479206d696e7465640000000060448201526064016103f4565b6001600160a01b038216600081815260036020908152604080832080546001019055848352600290915280822080546001600160a01b0319168417905551839291907fddf252ad1be2c89b69c2b068fc378daa952ba7f163c4a11628f55a4df523b3ef908290a45050565b816001600160a01b0316836001600160a01b03161415610b585760405162461bcd60e51b815260206004820152601960248201527f4552433732313a20617070726f766520746f2063616c6c65720000000000000060448201526064016103f4565b6001600160a01b03838116600081815260056020908152604080832094871680845294825291829020805460ff191686151590811790915591519182527f17307eab39ab6107e8899845ad3d59bd9653f200f220920489ca2b5937696c31910160405180910390a3505050565b610bd08484846107ec565b610bdc84848484610d4b565b6106335760405162461bcd60e51b81526004016103f490611275565b60606040518060600160405280602781526020016113e560279139905090565b60606000610c2583610e58565b600101905060008167ffffffffffffffff811115610c5357634e487b7160e01b600052604160045260246000fd5b6040519080825280601f01601f191660200182016040528015610c7d576020820181803683370190505b5090508181016020015b600019016f181899199a1a9b1b9c1cb0b131b232b360811b600a86061a8153600a8504945084610cb657610cbb565b610c87565b509392505050565b6001811115610633576001600160a01b03841615610d09576001600160a01b03841660009081526003602052604081208054839290610d03908490611324565b90915550505b6001600160a01b03831615610633576001600160a01b03831660009081526003602052604081208054839290610d4090849061130c565b909155505050505050565b60006001600160a01b0384163b15610e4d57604051630a85bd0160e11b81526001600160a01b0385169063150b7a0290610d8f9033908990889088906004016111d8565b602060405180830381600087803b158015610da957600080fd5b505af1925050508015610dd9575060408051601f3d908101601f19168201909252610dd691810190611127565b60015b610e33573d808015610e07576040519150601f19603f3d011682016040523d82523d6000602084013e610e0c565b606091505b508051610e2b5760405162461bcd60e51b81526004016103f490611275565b805181602001fd5b6001600160e01b031916630a85bd0160e11b1490506107e4565b506001949350505050565b60008072184f03e93ff9f4daa797ed6e38ed64bf6a1f0160401b8310610e975772184f03e93ff9f4daa797ed6e38ed64bf6a1f0160401b830492506040015b6d04ee2d6d415b85acef81000000008310610ec3576d04ee2d6d415b85acef8100000000830492506020015b662386f26fc100008310610ee157662386f26fc10000830492506010015b6305f5e1008310610ef9576305f5e100830492506008015b6127108310610f0d57612710830492506004015b60648310610f1f576064830492506002015b600a83106102c05760010192915050565b80356001600160a01b0381168114610f4757600080fd5b919050565b600060208284031215610f5d578081fd5b61069982610f30565b60008060408385031215610f78578081fd5b610f8183610f30565b9150610f8f60208401610f30565b90509250929050565b600080600060608486031215610fac578081fd5b610fb584610f30565b9250610fc360208501610f30565b9150604084013590509250925092565b60008060008060808587031215610fe8578081fd5b610ff185610f30565b9350610fff60208601610f30565b925060408501359150606085013567ffffffffffffffff80821115611022578283fd5b818701915087601f830112611035578283fd5b813581811115611047576110476113b8565b604051601f8201601f19908116603f0116810190838211818310171561106f5761106f6113b8565b816040528281528a6020848701011115611087578586fd5b82602086016020830137918201602001949094529598949750929550505050565b600080604083850312156110ba578182fd5b6110c383610f30565b9150602083013580151581146110d7578182fd5b809150509250929050565b600080604083850312156110f4578182fd5b6110fd83610f30565b946020939093013593505050565b60006020828403121561111c578081fd5b8135610699816113ce565b600060208284031215611138578081fd5b8151610699816113ce565b600060208284031215611154578081fd5b5035919050565b6000806040838503121561116d578182fd5b82359150610f8f60208401610f30565b6000815180845261119581602086016020860161133b565b601f01601f19169290920160200192915050565b600083516111bb81846020880161133b565b8351908301906111cf81836020880161133b565b01949350505050565b6001600160a01b038581168252841660208201526040810183905260806060820181905260009061120b9083018461117d565b9695505050505050565b602081526000610699602083018461117d565b6020808252602d908201527f4552433732313a2063616c6c6572206973206e6f7420746f6b656e206f776e6560408201526c1c881bdc88185c1c1c9bdd9959609a1b606082015260800190565b60208082526032908201527f4552433732313a207472616e7366657220746f206e6f6e20455243373231526560408201527131b2b4bb32b91034b6b83632b6b2b73a32b960711b606082015260800190565b60208082526025908201527f4552433732313a207472616e736665722066726f6d20696e636f72726563742060408201526437bbb732b960d91b606082015260800190565b6000821982111561131f5761131f6113a2565b500190565b600082821015611336576113366113a2565b500390565b60005b8381101561135657818101518382015260200161133e565b838111156106335750506000910152565b600181811c9082168061137b57607f821691505b6020821081141561139c57634e487b7160e01b600052602260045260246000fd5b50919050565b634e487b7160e01b600052601160045260246000fd5b634e487b7160e01b600052604160045260246000fd5b6001600160e01b0319811681146105f357600080fdfe68747470733a2f2f6578616d706c652e636f6d2f746f6b656e2f3732312f6d657461646174612fa264697066735822122009803c0ae674c1d18c6173aebaf306dcd75bc398870b41237b81e17c9743d10d64736f6c63430008040033",
  "linkReferences": {},
  "deployedLinkReferences": {}
}